:100000000C944C000C946B000C946B000C946B00E3
:100010000C946B000C946B000C946B000C946B00B4
:100020000C946B000C946B000C946B000C946B00A4
:100030000C946B000C946B000C946B000C946B0094
:100040000C946B000C946B000C946B000C946B0084
:100050000C946B000C946D000C946B000C946B0072
:100060000C946B000C946B000C946B000C946B0064
:100070000C946B000C946B000C946B000C946B0054
:100080000C946B000C946B000C946B000C946B0044
:100090000C946B000C946B0011241FBECFEFD0E2C8
:1000A000DEBFCDBF14E0A0E0B1E0E8EFFBE100E08F
:1000B0000BBF02C007900D92AA34B107D9F715E023
:1000C000AAE4B4E001C01D92A536B107E1F70E9491
:1000D00090000C94FA0D0C9400001F920F920FB632
:1000E0000F9211242F933F938F939F9381E08093DE
:1000F0004C0480914A0490914B042091330130913B
:100100003401820F931F90934B0480934A049F9174
:100110008F913F912F910F900FBE0F901F901895C8
:10012000AF92BF92CF92DF92EF92FF920F931F9305
:10013000DF93CF93CDB7DEB72A970FB6F894DEBF23
:100140000FBECDBF80ED97E020E931E0F901319796
:10015000F1F70197D9F78091330190913401969589
:10016000982F88279795879587BD82E080936E00AA
:1001700015E015BD84BD00E80093610000E0009328
:10018000610000E80093550000E80093550000006E
:10019000000085B7806185BF80E280933904809339
:1001A0003A0480933B0480933C0480933D04809305
:1001B0003E0480933F0480934004809341048093E5
:1001C00042048093430480934404809345048093C5
:1001D000460480934704809348048CE060E048E242
:1001E00022E00E94240580E060E048E222E00E94D4
:1001F000240588E06BE040E02CE301E057E0E52EC9
:10020000CC240E94B80A84E067E040E02CE30E941E
:10021000B80A0E94590684E08093890484E180939F
:100220008C0410938D0410928B0480938A04109296
:1002300088048AE080938E041092900410928F04B8
:1002400078940E941E0284B1806384B98AB183606D
:100250008AB98091B000836A8093B0008091B10028
:1002600081608093B1003FEFA32EB12C7E010894F2
:10027000E11CF11C80914C048823E1F310924C04A2
:1002800080914A0490914B040E94B0056C0180E07B
:100290000E94070380E091E00E9479038091D304DB
:1002A0009501281B3109C901B7014AE050E00E94BD
:1002B000B50DC7010E94790382E00E944C05B70189
:1002C0004AE050E00E94B50D8BE091E00E94790376
:1002D000C7010E9479038EE091E00E94790381E0DA
:1002E0000E94070382E191E00E9479038091D40487
:1002F00090E0B7014AE050E00E94B50DC7010E94AE
:10030000790383E00E944C05B7014AE050E00E9467
:10031000B50D8BE091E00E947903C7010E9479033B
:100320008EE091E00E94790382E00E9407038DE154
:1003300091E00E9479038091D10490E081709070E7
:10034000B7014AE050E00E94B50DC7010E94790351
:100350008BE091E00E94790380E00E944C05B70198
:100360004AE050E00E94B50DC7010E9479038EE07B
:1003700091E00E94790383E00E94070388E291E004
:100380000E9479038091D10490E0827090709695DC
:100390008795B7014AE050E00E94B50DC7010E9461
:1003A00079038BE091E00E94790381E00E944C0583
:1003B000B7014AE050E00E94B50DC7010E947903E1
:1003C0008EE091E00E9479038091D3048501081B9F
:1003D000110986E00E9407030E94290316950795DC
:1003E00086E0602F0E9433030E9454030091D404DE
:1003F00010E087E00E9407030E94290316950795E5
:1004000087E0602F0E9433030E9454038091D1043F
:1004100080FF02C02D9A01C02D9881FF02C0589A1A
:1004200001C058988091D30480958093B300809147
:10043000D4048093B400D0FC23CF1CCF80917400EF
:100440008C6880937400809175008660809375003D
:100450008FEF82B988B1836088B980EA9FE0019705
:10046000F1F7E0913404F09135048EEA8083E09155
:100470003404F091350481EA8083E0913404F091F2
:1004800035048AED8083E0913404F091350482E1F3
:100490008083E0913404F091350488EC8083E0910E
:1004A0003404F091350488EA8083E0913404F091BB
:1004B00035048FE38083E0913404F091350485EDB9
:1004C0008083E0913404F091350480E88083E091EA
:1004D0003404F091350481E88083E0913404F09194
:1004E000350480E58083E0913404F091350489ED92
:1004F0008083E0913404F091350491E29083E0919F
:100500003404F091350480E28083E0913404F0916A
:1005100035041082E0913404F09135049083E09129
:100520003404F09135041082E0913404F0913504E4
:100530008FE78083E0913404F091350482E2808378
:10054000E0913404F09135041082E0913404F0918C
:10055000350487E08083E0913404F09135048BED1D
:100560008083E0913404F091350480E38083E0914E
:100570003404F09135048DEA8083E0913404F091E5
:1005800035041082E0913404F091350484EA8083CC
:10059000E0913404F091350486EA8083E0913404DC
:1005A000F09135048FEA808390E00BC0E09136042F
:1005B000F091370410828F5F8038C1F79F5F9830C9
:1005C00011F080E0F3CF0895E0913404F091350408
:1005D00081E28083E0913404F09135041082E0914F
:1005E0003404F09135048FE78083E0913404F09176
:1005F000350482E28083E0913404F0913504108266
:10060000E0913404F091350487E080830895E0910F
:100610003404F091350491E29083E0913404F09138
:1006200035041082E0913404F09135049FE7908303
:10063000E0913404F091350492E29083E091340427
:10064000F09135048083E0913404F0913504808387
:10065000089580E0E0913604F091370410828F5FB6
:100660008038C1F70895E0913404F091350491E2A7
:100670009083E0913404F09135046083E091340478
:10068000F09135046083E0913404F091350492E2F6
:100690009083E0913404F09135048083E091340438
:1006A000F091350480830895E0913604F091370489
:1006B0008FEF80830895AC01E0913604F091370408
:1006C000108285E38A95F1F720E030E095E0E09133
:1006D0003604F0913704DA01A20FB31F8C918083A6
:1006E000892F8A95F1F72F5F3F4F2530310579F734
:1006F00008951F93CF93DF93EC0110E00AC01F5FB2
:10070000F0E0EE0FFF1FEC5CFC4F808191810E94B6
:100710005B03FE01E10FF11DE081EE2381F7DF9124
:10072000CF911F9108957F939F9371B3982F9095C8
:10073000792371BB78B1962F9095792378B9982F4A
:1007400070B3792B70BB77B1962F792B77B9942F33
:1007500090957EB179237EB97DB1942F792B7DB9A7
:10076000922F909578B1792378B977B1922F792B20
:1007700077B98D98859A9F917F9108957F939F93E4
:1007800077B1709359057093630570B370935C05EE
:1007900070935D05782F70959091630597239093E2
:1007A0006305762F709590915D05972390935D0575
:1007B000882770915D0570BB9F917F91089547B91F
:1007C0008CB9E0BA20BB07B98CB9089547B986B98E
:1007D000E0BA20BB07B986B908958D9A08958D981F
:1007E00070915C0570BB0895A0E0B0E0EAEFF3E023
:1007F0000C94870D182FC62EF894809164008E7F7C
:1008000080936400E12FE695E695E695F0E0EE0F23
:10081000FF1FDF01AB5ABE4F8C9180937C0080910B
:100820006400816080936400EA5AFE4F6081862FE5
:100830000E94BE03D82EC12FD0E0FE01E75CFB4F23
:10084000F08010E0BB24B39420C0F8948C2D6D2D63
:100850004091630520915D0500915905E0905C058C
:100860000E94DF038FB790915A05892B8FBF80912B
:1008700038048F5F80933804823030F0823021F06A
:10088000833011F0B09238041F5F1F15F0F2F89416
:100890000E94ED031092850010928400B59A00B674
:1008A00005FE18C08FB790915A05892B8FBF07C0DE
:1008B00080918400909185008050904290F4B59B87
:1008C000F7CF8091860090918700CC0FDD1FCF5627
:1008D000DB4F0DC0CC0FDD1FCF56DB4F81E090E02A
:1008E00006C0CC0FDD1FCF56DB4F80E090E299832E
:1008F00088830E94EF038FB790915A05892B8FBF91
:10090000CDB7DEB7E9E00C94A30DA0E0B0E0EBE8D2
:10091000F4E00C94870D182FC62EF8948091640093
:100920008E7F80936400E12FE695E695E695F0E0F2
:10093000EE0FFF1FDF01AB5ABE4F8C9180937C00FE
:1009400080916400816080936400EA5AFE4F608168
:10095000862F0E94BE03D82EC12FD0E0FE01E75C97
:10096000FB4FF08010E0BB24B39420C0F8948C2D92
:100970006D2D4091630520915D0500915905E09032
:100980005C050E94E6038FB790915A05892B8FBFB3
:10099000809138048F5F80933804823030F0823049
:1009A00021F0833011F0B09238041F5F1F15F0F270
:1009B000F8940E94ED031092850010928400B59A7D
:1009C00000B605FE18C08FB790915A05892B8FBFCE
:1009D00007C080918400909185008050904290F4EF
:1009E000B59BF7CF8091860090918700CC0FDD1FDB
:1009F000CF56DB4F0DC0CC0FDD1FCF56DB4F81E054
:100A000090E006C0CC0FDD1FCF56DB4F80E090E2B8
:100A1000998388830E94EF038FB790915A05892BA1
:100A20008FBFCDB7DEB7E9E00C94A30DFC0181E8E0
:100A300094E19183808388E490E09383828381E3CF
:100A400094E09583848308950F931F939091D80425
:100A5000E92FF0E009ED14E053E0EE0FFF1F5A9587
:100A6000E1F7D801AE0FBF1F13964C9313970E0FEB
:100A70001F1F677015968C93159716968C9323708D
:100A8000660F660F660F262BF80124839F5F9093F5
:100A9000D8041F910F910895EF92FF921F93CF9367
:100AA000DF93282FE82EFF24F701A3E0EE0FFF1FAE
:100AB000AA95E1F7E752FB4F6581838190E00090B2
:100AC000880402C0959587950A94E2F7182F843020
:100AD00008F414E08091D804281718F020E030E0E2
:100AE00038C0E70173E0CC0FDD1F7A95E1F7C35200
:100AF000DB4F9881892F807C29F5862F0E94A806DC
:100B00009C01412F50E016951695812F90E0841B93
:100B1000950B821793071CF488818B7F8883882725
:100B20009927841B950B821793079CF0F70163E0CC
:100B3000EE0FFF1F6A95E1F7E352FB4F808184605F
:100B4000808307C09B7F9883822F412F0E942E0DA8
:100B50009C01C901DF91CF911F91FF90EF90089503
:100B6000FF920F931F93CF93DF931092D6041092AE
:100B7000D5042091540430915504909355048093EA
:100B800054044091560450915704421B530B480F94
:100B9000591FFF2403C0F394485C5040483C510562
:100BA000D0F750935704409356048091D70488237C
:100BB00041F08F1518F41092D70403C08F19809359
:100BC000D7040E94F309E0918F04F09190043097CC
:100BD00009F0099510E000E006C0812F6F2D0E94FA
:100BE000BD06082B1F5F6091D8041617B0F30023D1
:100BF00049F08091D5049091D60491609093D604E9
:100C00008093D5041092D1041092D204A9EDB4E0DF
:100C100030E041E050E017C08C91887191F0E32FF3
:100C2000E695E695E695F0E0EF52FB4F832F87704F
:100C3000EA0102C0CC0FDD1F8A95E2F720812C2B40
:100C400020833F5F1896361738F38091D504909132
:100C5000D604CDB7DEB7E5E00C94A70D1092D8040A
:100C60001092640584E08093890494E190938C044D
:100C700085E080938D0410928B0490938A0481E028
:100C80008093880483E080938E040E9487091092E9
:100C9000900410928F0408951F9310E004C0812FD8
:100CA0000E9495061F5F8091D8041817C0F31F910A
:100CB00008951F9310E004C0812F0E9495061F5FC6
:100CC0008091D8041817C0F3109255041092540460
:100CD0000E94560A1F910895E82FF0E093E0EE0F6E
:100CE000FF1F9A95E1F7DF01A752BB4F15962C9194
:100CF000159716963C91169782E08C938091D504B7
:100D00009091D60482609093D6048093D504E552E6
:100D1000FB4F108280E806C0E22FF0E0E85AFB4F5C
:100D200080832F5F3217C0F708951F93182F0E94FA
:100D30006C06E12FF0E023E0EE0FFF1F2A95E1F7AC
:100D4000E752FB4F81E080838FE081831F910895FC
:100D500090E0FC017096A1E9B4E0EE0FFF1FEA0FEE
:100D6000FB1F880F991FA80FB91F208131818D911A
:100D70009C91281B390BC9010895A0E0B0E0E3EC79
:100D8000F6E00C94820D782EE62E0E944C055C0154
:100D9000C72DD0E0FE0173E0EE0FFF1F7A95E1F75B
:100DA000E352FB4F5081FE0163E0EE0FFF1F6A9597
:100DB000E1F7E752FB4F4381242F30E0852F83700A
:100DC00090E0019602C0359527958A95E2F7822F2B
:100DD000223008F482E0242F30E0B901681B710949
:100DE000FE0143E0EE0FFF1F4A95E1F7DF01A75236
:100DF000BB4F8C91843009F4EDC0853030F48130E4
:100E000071F0823009F07CC25AC0803109F499C176
:100E1000803209F449C2883009F072C206C22091BA
:100E2000D5043091D604326015966C9115971696BC
:100E30007C9116978F01AD014F5F5F4F2AC0DA0199
:100E40008C91A62FB0E08A3060F0AA0FBB1FFD0185
:100E5000EF56FB4F80819181AF54BB4F8D939C9394
:100E600016C0AA0FBB1FED01CF54DB4F88819981BB
:100E7000AF56BB4FED91FC91E817F90710F40197BD
:100E800004C08E179F0720F40196998388832860F9
:100E90006F5F7617A0F63093D6042093D504F8013F
:100EA000E752FB4F818181508183882319F4872D7C
:100EB0000E946C0680918A048093D7041FC252FF5F
:100EC0000AC01596EC911597F0E0E85AFB4F108296
:100ED00080E28C9304C2C501B7FE02C080E090E0BE
:100EE0008217930770F063E0CC0FDD1F6A95E1F77E
:100EF000FE01E752FB4F84E08083C552DB4F18822E
:100F0000F4C1EE2009F4FCC18091D704882309F0D4
:100F1000F7C1FE0143E0EE0FFF1F4A95E1F7E752EC
:100F2000FB4F1581D680F0908D04B0E8FB0E00E8F1
:100F300080918C04081B6091D5047091D60430E830
:100F4000C32E40C0412F50E0EA01CC0FDD1FCF542B
:100F5000DB4F28813981FA01EE0FFF1FEF56FB4F5F
:100F60000190F081E02D2E173F0760F4FA01E85A56
:100F7000FB4F80818E0D80838F1518F1C0822F5F0B
:100F80003F4F0EC0DA01A85ABB4FE217F30760F4D7
:100F90008C918E198C930817A0F0CC922150304080
:100FA0003983288368600DC09C91913810F091506E
:100FB0009C93FA01E85AFB4F808187FD02C08F5F46
:100FC00080831F5FD11608F0BDCF7093D604609365
:100FD000D50496C1C501B7FE02C080E090E082173B
:100FE000930708F471C180918A048093D704DE01CD
:100FF00083E0AA0FBB1F8A95E1F7A552BB4F8C91E6
:101000008F5F8C93FE0113E0EE0FFF1F1A95E1F73F
:10101000E352FB4F808190E088739070F3E09695E7
:101020008795FA95E1F7682E882309F44EC0DD24F0
:10103000CC247E01E3E0EE0CFF1CEA95E1F7ECED39
:10104000F4E0EE0EFF1E4D013AC0D714B9F10D2D9C
:1010500010E0F80173E0EE0FFF1F7A95E1F7E3521D
:10106000FB4F808190E08873907063E09695879540
:101070006A95E1F7681611F58D2D0E944C05F8016F
:1010800053E0EE0FFF1F5A95E1F7E752FB4F238124
:10109000821B9109D7012C91A501421B51094817C8
:1010A00059071CF4D4011C9207C0E081E03111F013
:1010B000E83021F4F4011082CC24C394D3948091BD
:1010C000D804D81610F2CC2079F4809189048823B2
:1010D00059F08091D5049091D60498609093D604ED
:1010E0008093D50411E001C010E0FE0143E0EE0F53
:1010F000FF1F4A95E1F7E552FB4F908180918904EB
:10110000981708F4FEC08091D5049091D6048360AE
:101110009093D6048093D50433E0CC0FDD1F3A952D
:10112000E1F7FE01E752FB4F80E180831182C35259
:10113000DB4F8881807C09F4E4C0872D0E94400C3D
:10114000E0C052FF10C01596EC911597F0E0E85AF8
:10115000FB4F80E8808380E28C938091D50490914E
:10116000D604906158C0C501B7FE02C080E090E08F
:101170004091D5045091D6048617970778F493E0F0
:10118000CC0FDD1F9A95E1F7C752DB4F88E08883CB
:1011900054605093D6044093D50441C041605093AD
:1011A000D6044093D504FE0183E0EE0FFF1F8A951D
:1011B000E1F7E552FB4F908180918904981710F474
:1011C0009F5F9083FE0113E0EE0FFF1F1A95E1F77A
:1011D000E352FB4F8081807C19F0872D0E94660CC2
:1011E00090918B04992369F0FE01B3E0EE0FFF1F8D
:1011F000BA95E1F7E752FB4F8181891720F48E0DF4
:10120000818310E00DC0872D0E9495068091D50442
:101210009091D60492609093D6048093D50411E007
:1012200080918A048093D7046CC080918A04809353
:10123000D704FE01A3E0EE0FFF1FAA95E1F7E552E8
:10124000FB4F8081882309F43FC0C501B7FE02C06F
:1012500080E090E04091D5045091D604681779075A
:1012600088F4FE0163E0EE0FFF1F6A95E1F7E75295
:10127000FB4F80E1808341605093D6044093D504B6
:1012800010E006C054605093D6044093D50411E09A
:10129000FE0153E0EE0FFF1F5A95E1F7E552FB4FB9
:1012A0008081815080832DC01596EC911597F0E0D8
:1012B000E85AFB4F90819F5F908352FD09C097FFD2
:1012C00003C080E18C931CC0872D0E946C0618C05F
:1012D00080918E04981748F0872D0E949506809182
:1012E000D5049091D604906105C08091D504909169
:1012F000D60494609093D6048093D50411E001C085
:1013000010E0812FCDB7DEB7EEE00C949E0DE9E33F
:10131000F4E080E4819394E0E934F907D9F7089583
:10132000FF920F931F93CF93DF93EC0100E020C057
:10133000802F90E023E0880F991F2A95E1F7FC01A8
:10134000E352FB4F2081207CFC0131F4E752FB4F3C
:101350008581FE0109950BC0E752FB4FF680158190
:1013600004C0812FFE0109951F5FF116D0F70F5FB2
:101370008091D8040817E0F2CDB7DEB7E5E00C9411
:10138000A70DE82FE695E695E695F0E0EE0FFF1F36
:10139000EB5AFE4F21E030E0008002C0220F331FE5
:1013A0000A94E2F740915E05422B40935E0540911E
:1013B0005F05242B20935F05877090E0A5E3B1E0E3
:1013C000880F991F880F991FFD01E80FF91FE3810E
:1013D000F0E0E25AFA4FA80FB91F808112969C9153
:1013E000892B80830895A0E0B0E0E9EFF9E00C9448
:1013F000850D8FB7807880935A05EBE7F0E0A080E9
:1014000090B6A0E8B0E0BC9021E830E0E901F880B7
:10141000E6B20091840010918500D0906400C090E5
:101420007C0080E4808384E080BF1C9281E8888314
:10143000F89487E39AE00E949009A0927B0090BE06
:10144000B0928000F0928100E6BA1093850000937C
:101450008400D0926400C0927C008FB790915A05AE
:10146000892B8FBFCDB7DEB7EBE00C94A10D982F81
:101470008770A82FB0E0FD01EE0FFF1FEE0FFF1FDA
:10148000EB5CFE4F0190F081E02D309749F0AA0F00
:10149000BB1FAA0FBB1FA95CBE4F892F6C9109957A
:1014A0008FB790915A05892B8FBF08950F9381E0D4
:1014B0008093380410925E0510925F0510926005CB
:1014C000109261051092620581EC99E00E949009EA
:1014D00080915F0560915E054091600520916105F6
:1014E000009162050E9493030F910895AF92CF92ED
:1014F000EF920F939C2DE091D804F0E073E0EE0F93
:10150000FF1F7A95E1F7DF01A752BB4F13962C938B
:101510001397E352FB4F2091640517962C9317976E
:10152000477015968C93159716966C930370440F1D
:10153000440F440F042B0083E22FF0E09770E294F5
:10154000EE0C30EEE3229E2983E0EE0FFF1F8A951A
:10155000E1F7E859FB4F9083AA2011F0986090833F
:101560002F5F209364050F91EF90CF90AF90089577
:10157000AF92CF92EF920F93AA240E94760A909195
:10158000D804E92FF0E0A3E0EE0FFF1FAA95E1F7E2
:10159000E352FB4F8081806880839F5F9093D804E3
:1015A0000F91EF90CF90AF900895AF92CF92EF92BE
:1015B0000F93AA24A3940E94760A9091D804E92F4D
:1015C000F0E0B3E0EE0FFF1FBA95E1F7E352FB4FF7
:1015D0008081806480839F5F9093D8040F91EF9007
:1015E000CF90AF9008956115710511F14F5F03C061
:1015F0004150880F991F97FD06C04423C9F703C0C7
:101600004F5F660F771F77FFFBCF20E030E00CC005
:10161000220F331F8617970720F0861B970B2F5F2B
:101620003F4F415076956795442321F037FFF0CF27
:101630002FEF3FEFC9010895FB0123813481B6E00C
:1016400036952795BA95E1F7821B930B9C01808113
:1016500083FF0CC0213831051CF02050314006C0FA
:101660008FEF2038380714F420503F4FC9010895F8
:10167000A0E0B0E0EEE3FBE00C94880DE82FF0E092
:1016800073E0EE0FFF1F7A95E1F7E752FB4FA7815A
:10169000B0E063E0AA0FBB1F6A95E1F7A859BB4F02
:1016A000EC9058E0C52EEC2006818581D02ED81A0A
:1016B000FD2CF394182FC82FD0E01AC0812F0E9460
:1016C000A806E12FF0E0181619064CF4EC1BFD0BF0
:1016D000EE0FFF1FE858FB4F9183808308C0EC1B7F
:1016E000FD0BEE0FFF1FE858FB4F118210821F5FAA
:1016F000011720F71091780400917904EAE7F4E0EB
:10170000812F902F9C01D90121E070E00BC08081D6
:101710009181A817B90710F0CD0101C0722F2F5F7A
:101720003296DC012F1598F37723B9F4EE2021F4DB
:1017300060E040E050E01AC0EF2DF0E0EE0FFF1F38
:10174000EA58FB4F4081518180917A0490917B044B
:101750008417950750F461E009C0E72FF0E0EE0F21
:10176000FF1FEA58FB4F4081518160E07D1549F42D
:10177000EE2019F420E030E00CC0812F902F9C0166
:1017800008C0E72FF0E0EE0FFF1FE658FB4F208167
:101790003181662341F0C0E0D0E06E018F2D880FCB
:1017A000880FD82E06C0C0E0D0E06E01770F770F0B
:1017B000D72EE601C0E04217530770F0CD01821B1F
:1017C000930BBC01621B730B640F751F4AE00E94F0
:1017D000F30A805094400BC0B901641B750BA41B25
:1017E000B50BCB016A0F7B1F4AE00E94F30A9C01F4
:1017F0002C0F3D1F52E0D52EDF1478F4EE2021F09F
:10180000C9016F2D70E005C06F2D70E06150704010
:10181000C90140E00E94F30A9C01C90180709C7FCD
:10182000892B11F02FEF33E0EE2029F03695279524
:10183000369527951FC02636310518F460E070E014
:1018400003C0B9016656704080E090E028E33FE9AC
:1018500040E050E00E945F0D21E1969587957795D5
:1018600067952A95D1F79B016F3F710519F010F02C
:101870002FEF30E0C901CDB7DEB7E8E00C94A40D3E
:101880001F93E82FF0E013E0EE0FFF1F1A95E1F72A
:10189000E752FB4F17810E94380BE12FF0E0B3E0D5
:1018A000EE0FFF1FBA95E1F7E859FB4F2081277033
:1018B00092838183268325831782A6E0880F991F50
:1018C000AA95E1F7948383831F910895A0E0B0E087
:1018D000ECE6FCE00C94890DE82FF0E0A3E0EE0FBD
:1018E000FF1FAA95E1F7E752FB4FD7800E94380B04
:1018F0007C01CD2DD0E0E3E0CC0FDD1FEA95E1F7D0
:10190000C859DB4FBE010E941C0BAC0197FF03C0FE
:10191000509541955F4F20E030E0E0E4F0E0CF01EA
:10192000022E02C0969587950A94E2F784179507D0
:1019300050F48F81281710F4815003C0863040F492
:101940008F5F8F8305C02F5F3F4F2630310539F7FA
:101950001881012F0770C701BE010E941C0B9C015A
:101960006F814B815C81181619066CF476E0880F44
:10197000991F7A95E1F702C0969587956A95E2F7E7
:10198000840F951F12C088279927821B930B36E07E
:10199000880F991F3A95E1F702C0969587956A9549
:1019A000E2F79A01281B390BC9019C838B8313FF33
:1019B00003C09F739C838B8389819A81BE010E949F
:1019C0001C0B9C018D8190E0821793071CF40E8301
:1019D0001D820AC08E8190E0909581959F4F2817B7
:1019E00039075CF41E820D838B819C8126E09695DD
:1019F00087952A95E1F79A8389834D2D50E0FA0166
:101A000083E0EE0FFF1F8A95E1F7E859FB4F208135
:101A10002295269527702F5F88E090E0821B910920
:101A20002181328102C0369527958A95E2F7FA0125
:101A3000ED52FB4F808190E08217930751F0208395
:101A40008091D5049091D60484609093D6048093BD
:101A5000D504CDB7DEB7E7E00C94A50DA0E0B0E06B
:101A6000E4E3FDE00C94880D90E013E0880F991FEB
:101A70001A95E1F7FC01E752FB4FE680F62E00E0F5
:101A800010E050E0CC24DD24C41AD50AEC01C35286
:101A9000DB4F0DC08F2D0E94A8069C01C816D906E9
:101AA0001CF0888184608883020F131FF394EF1465
:101AB00088F7C801CDB7DEB7E8E00C94A40D629FAB
:101AC000D001739FF001829FE00DF11D649FE00D36
:101AD000F11D929FF00D839FF00D749FF00D659F97
:101AE000F00D9927729FB00DE11DF91F639FB00D96
:101AF000E11DF91FBD01CF01112408952F923F92DE
:101B00004F925F926F927F928F929F92AF92BF920D
:101B1000CF92DF92EF92FF920F931F93CF93DF93B9
:101B2000CDB7DEB7CA1BDB0B0FB6F894DEBF0FBE16
:101B3000CDBF09942A88398848885F846E847D8463
:101B40008C849B84AA84B984C884DF80EE80FD8065
:101B50000C811B81AA81B981CE0FD11D0FB6F894DB
:101B6000DEBF0FBECDBFED010895FB019F01E894DC
:101B70004230C4F04532B4F44A3029F497FB1EF4E5
:101B8000909581959F4F642F77270E94E60D805D89
:101B90008A330CF0895D8193CB010097A1F716F48D
:101BA0005DE251931082C9010C94D60DDC01FC0159
:101BB000672F71917723E1F7329704C07C916D9381
:101BC00070836291AE17BF07C8F30895AA1BBB1BB1
:101BD00051E107C0AA1FBB1FA617B70710F0A61B2D
:101BE000B70B881F991F5A95A9F780959095BC014E
:081BF000CD010895F894FFCF28
:101BF800536C6964657220523A200020280029201D
:101C08002000536C69646572204C3A200042757458
:101C1800746F6E20313A2000427574746F6E2032F2
:101C28003A20001900F4038002F4030802F40320A8
:101C380002F40310028504040385040803850410D4
:101C48000385042003064007803E5149453E004273
:101C58007F400042615149462141454B31181412D9
:101C68007F1027454545393C4A49493002017109E9
:101C7800073649494936064949291E7C1211127C02
:101C88007F494949363E414141227F4141221C7FDB
:101C9800494949417F090909013E4149497A7F0873
:101CA80008087F00417F41002040413F017F081420
:101CB80022417F404040407F020C027F7F04081091
:101CC8007F3E4141413E7F090909063E4151215E5F
:101CD8007F09192946264949493201017F01013FF7
:101CE8004040403F1F2040201F3F4038403F631482
:101CF8000814630708700807615149454320545484
:101D080054787F484444383844444420384444484C
:101D18007F3854545418087E0901020C5252523E1E
:101D28007F0804047800447D40002040443D007F43
:101D38001028440000417F40007C041804787C0887
:101D480004047838444444387C14141408081414DF
:101D5800187C7C080404084854545420043F444028
:101D6800203C4040207C1C2040201C3C4038403C0B
:101D780044281028440C5050503C4464544C4400AF
:101D8800004F00000007000700147F147F14242A66
:101D98007F2A12231308646236495522500005032E
:101DA8000000001C2241000041221C0014083E08CB
:101DB8001408083E08080050300000080808080801
:101DC80000606000002010080402003636000000A1
:101DD800563600000814224100141414141400414B
:101DE8002214080201510906324979413E7F4141D6
:101DF800000015167C16150041417F0004020102FF
:101E08000440404040400001020400000836410000
:101E180000007F0000004136080010080810083C48
:101E28002221223C4D044D044D044D044D044D0423
:101E38004D044D044D044D044D044D044D044D0412
:101E48004D044D044D044D044D044D044D044D0402
:101E58004D044D044D044D044D044D044D044D04F2
:101E68004D044D044D048F02940299029E02A30270
:101E7800A802AD02B202B702BC02C102C602CB027E
:101E8800D002D50259015E01630168016D0172013A
:101E980077017C0181018601DA02DF02E402E902AE
:101EA800EE02F302F8028B01900195019A019F015D
:101EB800A401A901AE01B301B801BD01C201C70166
:101EC800CC01D101D601DB01E001E501EA01EF0116
:101ED800F401F901FE0103020802FD0202030703EF
:101EE8000C03110316030D02120217021C02210231
:101EF80026022B02300235023A023F02440249020E
:101F08004E02530258025D02620267026C027102BD
:101F180076027B02800285028A021B0320032503C6
:101F28002A032F0300800082014040404040404087
:0A1F3800404040404040404040005F
:00000001FF
