S011000031354279676765726E2E73726563DF
S11300000C94B4010C94D1010C94D1010C94080308
S11300100C94D1010C94D1010C94D1010C94D10114
S11300200C94D1010C94D1010C94D1010C94D10104
S11300300C94D1010C94E2010C94D1010C94D101E3
S11300400C94D1010C94D1010C94D1010C94D101E4
S11300500C94D1010C94D1010C94D1010C94D101D4
S11300600C94D1010C94D1010C94D1010C94D101C4
S1130070000000000000000000065F5F06000000B2
S11300800007070007070000147F7F147F7F140018
S1130090242E6B6B3A120000466630180C66620020
S11300A0307A4F5D377A48000407030000000000EF
S11300B0001C3E63410000000041633E1C00000040
S11300C0082A3E1C1C3E2A0808083E3E0808000078
S11300D000A0E0600000000008080808080800000C
S11300E000006060000000006030180C060301008E
S11300F03E7F594D7F3E000042427F7F40400000DA
S1130100627359496F660000226349497F360000D3
S1130110181C16137F7F1000276745457D390000A2
S11301203C7E4B4979300000036371190F070000CE
S1130130367F49497F360000064F49693F1E00005B
S113014000006C6C0000000000A0EC6C00000000DB
S1130150081C366341000000141414141414000025
S1130160004163361C080000020351590F060000C9
S11301703E7F415D5D1F1E007C7E13137E7C00006C
S1130180417F7F49497F36001C3E63414163220021
S1130190417F7F41637F1C00417F7F495D41630054
S11301A0417F7F491D0103001C3E6341517372006E
S11301B07F7F08087F7F000000417F7F41000000AF
S11301C0307040417F3F0100417F7F081C7763000E
S11301D0417F7F41406070007F7F060C067F7F0077
S11301E07F7F060C187F7F001C3E6341633E1C002A
S11301F0417F7F49090F06001E3F21717F5E000089
S1130200417F7F19396F460026674D597B320000C4
S113021003417F7F410300007F7F40407F7F0000D8
S11302201F3F60603F1F00007F7F3018307F7F00DA
S113023063771C081C776300074F78784F0700002A
S11302406773594D47637100007F7F41410000008F
S11302500103060C183060000041417F7F0000005C
S1130260080C0603060C0800808080808080808053
S11302700000030704000000207454543C7840003C
S1130280413F7F44447C3800387C44446C2800005F
S1130290307848493F7F4000387C54545C18000053
S11302A0487E7F490302000098BCA4A4F87C0400A3
S11302B0417F7F08047C780000447D7D400000007D
S11302C040C484FD7D000000417F7F10386C4400F1
S11302D000417F7F400000007C7C0C180C7C78007F
S11302E07C7C04047C780000387C44447C38000026
S11302F084FCF8A4243C1800183C24A4F8FC8400D2
S1130300447C78441C180000485C54547424000055
S113031000043E7F442400003C7C40403C7C400080
S11303201C3C60603C1C00003C7C6030607C3C00F9
S1130330446C3810386C44009CBCA0A0FC7C0000C9
S11303404C64745C4C64000008083E774141000032
S113035000000077770000004141773E0808000064
S1130360020301030203010011241FBECFEFD4E0F6
S1130370DEBFCDBF11E0A0E0B1E0EEE5F6E102C0E2
S113038005900D92A035B107D9F721E0A0E5B1E0C1
S113039001C01D92AD36B207E1F70E945F030C94D1
S11303A02D0B0C9400008D9A82EC8FBD89E18EBDDB
S11303B08AE090E095BD84BD85E090E09BBD8ABD58
S11303C0789408951F920F920FB60F9211240F90F4
S11303D00FBE0F901F9018958068E0E0F4E18083D1
S11303E08FEF9FE50197F1F700C000008081089529
S11303F00F931F93CF93DF938C0180E00E94EC0155
S113040090E08F579109C0E0D0E09F838E8381E014
S11304100E94EC0190E08F5791099987888786B1F3
S113042086B98BE0FE01D80101900D928A95E1F71F
S1130430C801DF91CF911F910F910895CF92DF9260
S1130440EF92FF920F931F93CF93DF93C62FD0E0C9
S1130450682F70E06C1B7D0B6F5771091AF40FEF56
S11304601FEF02C001E010E0072E000C880B990B6F
S11304700E94C7056B017C010C9FC0010D9F900D6C
S11304801C9F900D11246FE770E0681B790B072EF9
S1130490000C880B990B0E94C7059B01AC01C70196
S11304A0B6010E941D0520E030E048EC52E40E94B1
S11304B053060E948F05CB016536710514F084E65E
S11304C090E0DF91CF911F910F91FF90EF90DF901B
S11304D0CF9008951F93CF93DF93EC011E8180E0AA
S11304E00E94EC01612F0E941E029B838A8318855F
S11304F081E00E94EC01612F0E941E029D838C8387
S1130500DF91CF911F910895FC0122813381233320
S11305103105ACF0A901332324F444275527421BA9
S1130520530B8481958199231CF4919581959109AC
S1130530481759070CF457C081E0828708952E3C70
S11305404FEF3407ACF484819581A901332324F45B
S113055044275527421B530B9C01992324F422273B
S11305603327281B390B42175307B4F11286089519
S11305708481958183339105A4F0A901332324F464
S113058044275527421B530B9C01992324F422270B
S11305903327281B390B42175307DCF482E0828788
S11305A008958E3C4FEF9407A4F4A901332324F457
S11305B044275527421B530B9C01992324F42227DB
S11305C03327281B390B421753071CF483E0828717
S11305D0089584E08287089583339105FCF608C06A
S11305E084819581F9CF2E3C8FEF3807CCF3C0CFAF
S11305F08E3C9F4F74F7EACFCF9382E00E94EC01C8
S1130600C82F83E00E94EC01982F8C2FCF9108957E
S11306101F920F920FB60F9211248F9381E0809353
S113062050018F910F900FBE0F901F90189585B7B2
S1130630806885BF80B7806280BF87B30895CF93F9
S1130640DF93CDB7DEB72B970FB6F894DEBF0FBE9E
S1130650CDBF8FE190E00E9410050E9417030E9415
S1130660D3010E942504319A399AF89486B781609F
S113067086BF8BB780628BBF789485B7806185BF56
S113068084B78F7D84BF86B7806886BFCE0101960C
S11306900E94F8010E94FC0285E090E00E94F304AD
S11306A010925401109260010E9497032B960FB68A
S11306B0F894DEBF0FBECDBFDF91CF9108950E94A5
S11306C01F03809160018111FECF85E591E00E94B6
S11306D06A0285E591E00E94840280915F010E9494
S11306E0FD03EFCF8BE291E09F938F930E940B0762
S11306F00F900F90089587E391E09F938F930E944A
S11307000B070F900F900895CF93C0E08C2F0E9499
S11307109A04CF5FC830D1F760E0809151010E9404
S1130720BD048CE091E00E94F904CF9108950E94E9
S11307308E0480E00E94570480E10E9461048EE1EF
S113074091E00E94F90481E00E94570480E10E9434
S1130750610487E191E00E94F90482E00E94570459
S113076080E10E9461048EE091E00E94F9040E94FD
S11307708403089583E491E09F938F930E940B0771
S11307800F900F9080915401882319F01092540116
S113079003C081E0809354010E949703089582303E
S11307A019F08330A1F0089580915101882321F13B
S11307B08150809351010E9484032FE38DE093E0E4
S11307C0215080409040E1F700C00000089520913E
S11307D05101822F90E00196039774F42F5F2093C8
S11307E051010E9484032FE38DE093E02150804067
S11307F09040E1F700C0000008950E94CF0380916B
S11308005001882369F010925001E0915101F0E009
S1130810EE0FFF1FEA5FFE4F0190F081E02D099576
S1130820089580958093001208958093001208958E
S1130830E0E0F0E181E2808310828FE7808382E24E
S11308408083108287E080830895E0E0F0E18EEAFF
S1130850808381EA80838AED808382E1808388ECCF
S1130860808388EA80838FE3808385ED808380E8BA
S1130870808381E8808380E5808389ED808381E2C1
S1130880808380E2808382E080838BED808380E3B9
S113089080838DEA8083108284EA808386EA808361
S11308A08FEA8083109254010E9418040895809363
S11308B05201E0E0F0E192E2908380838F5F8083D5
S11308C0089580935301E0E0F0E191E29083808306
S11308D08FE7808308950F931F93CF93DF938093C3
S11308E052010E945704C0E8D0E002E511E0F8018B
S11308F01182E0915401F0E0EE0FFF1FE95DFE4F1D
S11309000190F081E02D80E00995219781F70E9404
S11309101804DF91CF911F910F910895CF93C0E0F8
S11309208C2F0E946B04CF5FC830D1F70E9418044B
S1130930CF9108950F931F93CF93DF938093530127
S11309400E946104C8E0D0E002E511E0F8011082E1
S1130950E0915401F0E0EE0FFF1FE95DFE4F0190BE
S1130960F081E02D80E00995219781F70E94180419
S1130970DF91CF911F910F910895CF93C62F0E94BD
S113098057048C2F0E946104CF9108950F931F93F5
S1130990CF93DF93082F10E0E801CC0FDD1FCC0FBD
S11309A0DD1FCC0FDD1FC059D040000F111F000FF9
S11309B0111F000F111F08581040FE018491E0918F
S11309C05401F0E0EE0FFF1FE95DFE4F0190F0814E
S11309D0E02D09952196C017D10779F7DF91CF91C2
S11309E01F910F910895E0E0F0E191E890838083F6
S11309F00895CF93DF93EC018881882331F0219609
S1130A000E94C60489918111FBCFDF91CF91089593
S1130A105D9BFECF8CB908955F9BFECF8CB108958A
S1130A2090BD89B988E18AB98EE880BD6CE075E033
S1130A3088E095E00E94C00608950E9431050C9458
S1130A4019060E94120658F00E940B0640F029F481
S1130A505F3F29F00C94020651110C944D060C943E
S1130A6008060E942A0668F39923B1F3552391F3EB
S1130A70951B550BBB27AA2762177307840738F009
S1130A809F5F5F4F220F331F441FAA1FA9F335D066
S1130A900E2E3AF0E0E832D091505040E695001C1A
S1130AA0CAF72BD0FE2F29D0660F771F881FBB1FD4
S1130AB0261737074807AB07B0E809F0BB0B802DB2
S1130AC0BF01FF2793585F4F3AF09E3F510578F0DE
S1130AD00C9402060C944D065F3FE4F3983ED4F365
S1130AE0869577956795B795F7959F5FC9F7880FB2
S1130AF0911D9695879597F90895E1E0660F771F04
S1130B00881FBB1F621773078407BA0720F0621B94
S1130B10730B840BBA0BEE1F88F7E09508950E94BF
S1130B2096056894B1110C944D0608950E943206FE
S1130B3088F09F5798F0B92F9927B751B0F0E1F09A
S1130B40660F771F881F991F1AF0BA95C9F714C04A
S1130B50B13091F00E944C06B1E008950C944C061B
S1130B60672F782F8827B85F39F0B93FCCF3869583
S1130B7077956795B395D9F73EF4909580957095E0
S1130B8061957F4F8F4F9F4F0895E89409C097FB5D
S1130B903EF490958095709561957F4F8F4F9F4F50
S1130BA09923A9F0F92F96E9BB279395F695879594
S1130BB077956795B795F111F8CFFAF4BB0F11F457
S1130BC060FF1BC06F5F7F4F8F4F9F4F16C08823FE
S1130BD011F096E911C0772321F09EE8872F762F34
S1130BE005C0662371F096E8862F70E060E02AF075
S1130BF09A95660F771F881FDAF7880F9695879561
S1130C0097F9089597F99F6780E870E060E0089588
S1130C109FEF80EC089500240A9416161706180610
S1130C200906089500240A941216130614060506EC
S1130C300895092E0394000C11F4882352F0BB0F7D
S1130C4040F4BF2B11F460FF04C06F5F7F4F8F4FE0
S1130C509F4F089557FD9058440F551F59F05F3F1B
S1130C6071F04795880F97FB991F61F09F3F79F0CA
S1130C7087950895121613061406551FF2CF46954C
S1130C80F1DF08C0161617061806991FF1CF8695CE
S1130C907105610508940895E894BB2766277727B2
S1130CA0CB0197F908950E9466060C9419060E94D8
S1130CB00B0638F00E94120620F0952311F00C94D4
S1130CC002060C94080611240C944D060E942A0670
S1130CD070F3959FC1F3950F50E0551F629FF0018B
S1130CE0729FBB27F00DB11D639FAA27F00DB11DA4
S1130CF0AA1F649F6627B00DA11D661F829F22272D
S1130D00B00DA11D621F739FB00DA11D621F839FB3
S1130D10A00D611D221F749F3327A00D611D231F89
S1130D20849F600D211D822F762F6A2F11249F57D7
S1130D3050409AF0F1F088234AF0EE0FFF1FBB1FDA
S1130D40661F771F881F91505040A9F79E3F510599
S1130D5080F00C9402060C944D065F3FE4F3983E39
S1130D60D4F3869577956795B795F795E7959F5F43
S1130D70C1F7FE2B880F911D9695879597F90895D5
S1130D800F931F93CF93DF93009731F4611571058F
S1130D9019F480E090E03AC08B01EC016EE070E061
S1130DA081E090E00E940209FC01892B91F380E824
S1130DB083830115110571F01387028781E883830A
S1130DC08091630190916401892B21F4F093640173
S1130DD0E09363012097C9F0D187C0878381826043
S1130DE083838091650190916601892B71F4F0935E
S1130DF06601E09365018091670190916801892BF8
S1130E0021F4F0936801E0936701CF01DF91CF9162
S1130E101F910F910895A0E0B0E0E1E1F7E00C9498
S1130E20060BAE014B5F5F4FFA0161917191AF0107
S1130E3080916501909166010E942107E2E00C9483
S1130E40220BABE0B0E0E7E2F7E00C94F60A6C01A9
S1130E507B018A01FC0117821682838181FFCCC148
S1130E60CE0101963C01F6019381F70193FD859132
S1130E7093FF81917F01882309F4BAC1853239F443
S1130E8093FD859193FF81917F01853229F4B60109
S1130E9090E00E945C0AE7CF912C212C312CFFE1D9
S1130EA0F315D8F08B3279F038F4803279F083324C
S1130EB0A1F4232D20611DC08D3261F0803369F4CB
S1130EC0232D216016C0832D8260382EE32DE4602B
S1130ED03E2E2AC0F32DF8601DC037FC2DC020ED36
S1130EE0280F2A3040F08E32B9F436FC81C1232D0C
S1130EF02064322E19C036FE06C08AE0989E200D6A
S1130F001124922E11C0EAE02E9E200D1124222ECF
S1130F10F32DF0623F2E08C08C3621F4832D8068B7
S1130F20382E02C0883641F4F70193FD859193FF72
S1130F3081917F018111B3CF982F9F7D9554933078
S1130F4028F40C5F1F4F9FE399830DC0833631F063
S1130F50833771F0833509F059C021C0F8018081CD
S1130F6089830E5F1F4F88248394912C530113C0EF
S1130F702801F2E04F0E511CF801A080B18036FE2A
S1130F8003C0692D70E002C06FEF7FEFC5010E94BE
S1130F90510A4C018201F32DFF773F2E16C0280120
S1130FA022E0420E511CF801A080B18036FE03C03D
S1130FB0692D70E002C06FEF7FEFC5010E943F0A08
S1130FC04C01F32DF0683F2E820133FC1BC0822DAF
S1130FD090E088169906B0F4B60180E290E00E9491
S1130FE05C0A2A94F4CFF50137FC859137FE819190
S1130FF05F01B60190E00E945C0A21102A9421E06E
S1131000821A91088114910471F7E8C0843611F0B2
S1131010893641F5F80137FE07C06081718182810C
S113102093810C5F1F4F08C060817181072E000CF3
S1131030880B990B0E5F1F4FF32DFF763F2E97FF02
S113104009C090958095709561957F4F8F4F9F4F04
S1131050F0683F2E2AE030E0A3010E94980A882E0F
S1131060861845C0853731F4232D2F7EB22E2AE011
S113107030E025C0932D997FB92E8F36C1F018F436
S1131080883579F0B5C0803719F0883721F0B0C0C1
S1131090E92FE061BE2EB4FE0DC0FB2DF460BF2E1F
S11310A009C034FE0AC0292F2660B22E06C028E0EB
S11310B030E005C020E130E002C020E132E0F80178
S11310C0B7FE07C060817181828193810C5F1F4FDD
S11310D006C06081718180E090E00E5F1F4FA30124
S11310E00E94980A882E8618FB2DFF773F2E36FE25
S11310F00DC0232D2E7FA22E891458F434FE0BC06C
S113110032FC09C0832D8E7EA82E05C0B82CA32CDA
S113111003C0B82C01C0B92CA4FE0FC0FE01E80D19
S1131120F11D8081803321F49A2D997EA92E09C066
S1131130A2FE06C0B394B39404C08A2D867809F045
S1131140B394A3FC11C0A0FE06C0B21488F4280C0A
S1131150922C9B180EC0B21460F4B60180E290E0A9
S11311600E945C0AB394F7CFB21418F42B1802C08F
S1131170982C212CA4FE10C0B60180E390E00E94BC
S11311805C0AA2FE17C0A1FC03C088E790E002C07D
S113119088E590E0B6010CC08A2D867859F0A1FE4E
S11311A002C08BE201C080E2A7FC8DE2B60190E0B0
S11311B00E945C0A891438F4B60180E390E00E942E
S11311C05C0A9A94F7CF8A94F301E80DF11D8081AB
S11311D0B60190E00E945C0A8110F5CF222009F448
S11311E042CEB60180E290E00E945C0A2A94F6CFD7
S11311F0F6018681978102C08FEF9FEF2B96E2E183
S11312000C94120B0F931F93CF93DF93869F80014F
S1131210879F100D969F100D1124C8010E941E096E
S1131220EC01009729F0A80160E070E00E944A0AEE
S1131230CE01DF91CF911F910F9108950F931F93CA
S1131240CF93DF938230910510F482E090E0E09137
S11312506B01F0916C0120E030E0A0E0B0E0309749
S113126019F1408151810281138148175907C8F04F
S11312708417950769F4109731F012960C9312971E
S113128013961C9327C000936B0110936C0122C02A
S11312902115310519F04217530718F49A01BD01BD
S11312A0EF01DF01F801DBCF21153105F9F0281B2F
S11312B0390B2430310580F48A819B8161157105D5
S11312C021F0FB019383828304C090936C0180938B
S11312D06B01FE01329644C0FE01E20FF31F8193BD
S11312E0919322503109398328833AC020916901AE
S11312F030916A01232B41F42091020130910301C2
S113130030936A0120936901209100013091010119
S11313102115310541F42DB73EB740910401509198
S11313200501241B350BE0916901F0916A01E21774
S1131330F307A0F42E1B3F0B2817390778F0AC01F4
S11313404E5F5F4F2417350748F04E0F5F1F5093D1
S11313506A01409369018193919302C0E0E0F0E057
S1131360CF01DF91CF911F910F910895CF93DF9318
S1131370009709F481C0FC01329713821282A09174
S11313806B01B0916C01109781F420813181820F3F
S1131390931F2091690130916A012817390751F58B
S11313A0F0936A01E093690167C0ED0120E030E049
S11313B0CE17DF0740F44A815B819E014115510538
S11313C0F1F0EA01F5CFD383C28340815181840FC8
S11313D0951FC817D90759F488819981840F951FDF
S11313E00296918380838A819B81938382832115D2
S11313F0310529F4F0936C01E0936B013DC0E901E0
S1131400FB83EA8349915991C40FD51FEC17FD075B
S113141061F480819181840F951F0296E90199837B
S11314208883828193819B838A83E0E0F0E0129633
S11314308D919C911397009719F0FD01DC01F7CF72
S11314408D919C9111979D012E5F3F4F820F931FA9
S11314502091690130916A012817390769F430979E
S113146029F410926C0110926B0102C01382128253
S1131470B0936A01A0936901DF91CF910895FC01B3
S11314800590615070400110D8F7809590958E0FAB
S11314909F1F0895DC0101C06D9341505040E0F757
S11314A00895FC016150704001900110D8F78095B7
S11314B090958E0F9F1F08950F931F93CF93DF93E3
S11314C0FB01238121FD03C08FEF9FEF2CC022FF7E
S11314D016C046815781248135814217530744F44D
S11314E0A081B1819D012F5F3F4F318320838C9375
S11314F0268137812F5F3F4F3783268314C08B01AA
S1131500EC01FB010084F185E02D0995892BE1F6BE
S1131510D80116968D919C911797019617969C93D6
S11315208E931697CE01DF91CF911F910F9108955D
S1131530FA01AA27283051F1203181F1E8946F9300
S11315406E7F6E5F7F4F8F4F9F4FAF4FB1E03ED0A6
S1131550B4E03CD0670F781F891F9A1FA11D680F44
S1131560791F8A1F911DA11D6A0F711D811D911D77
S1131570A11D20D009F468943F912AE0269F1124EC
S11315803019305D3193DEF6CF010895462F477050
S1131590405D4193B3E00FD0C9F7F6CF462F4F70AB
S11315A0405D4A3318F0495D31FD4052419302D009
S11315B0A9F7EACFB4E0A6959795879577956795AF
S11315C0BA95C9F700976105710508959B01AC01AF
S11315D00A2E06945795479537952795BA95C9F7D6
S11315E0620F731F841F951FA01D08952F923F92B1
S11315F04F925F926F927F928F929F92AF92BF921F
S1131600CF92DF92EF92FF920F931F93CF93DF93CA
S1131610CDB7DEB7CA1BDB0B0FB6F894DEBF0FBE27
S1131620CDBF09942A88398848885F846E847D8474
S11316308C849B84AA84B984C884DF80EE80FD8076
S11316400C811B81AA81B981CE0FD11D0FB6F894EC
S1111650DEBF0FBECDBFED010895F894FFCFAD
S113165E00006D0120007203BA037B033E00536544
S113166E7474696E677300496E76657274004F7098
S113167E74696F6E203100150411044F7074696F14
S113168E6E3A20310A0D004F7074696F6E3A203332
S113169E0A0D00496E76657274696E670A0D000054
S9030000FC
