S011000031354279676765726E2E73726563DF
S11300000C9438000C9455000C9455000C94550035
S11300100C9455000C9455000C9455000C94550008
S11300200C9455000C9455000C9455000C945500F8
S11300300C9455000C9466000C9455000C945500D7
S11300400C9455000C9455000C9455000C945500D8
S11300500C9455000C9455000C9455000C945500C8
S11300600C9455000C9455000C9455000C945500B8
S113007011241FBECFEFD4E0DEBFCDBF11E0A0E05E
S1130080B1E0E4E4FAE002C005900D92AE3EB1079F
S1130090D9F721E0AEEEB1E001C01D92A83FB2074E
S11300A0E1F70E9484000C9420050C9400008D9AC2
S11300B082EC8FBD89E18EBD8AE090E095BD84BD60
S11300C085E090E09BBD8ABD789408951F920F92BD
S11300D00FB60F9211240F900FBE0F901F9018951A
S11300E08068E0E0F4E180838FEF9FE50197F1F70A
S11300F000C000008081089585B7806885BF80B7FF
S1130100806280BF87B308958FE190E00E94A600CB
S1130110319A399A0E947C000E945700C6E0D1E0CF
S113012080E00E9470001F928F93DF93CF930E9410
S1130130FE000F900F900F900F90F2CF5D9BFECFBB
S11301408CB908955F9BFECF8CB1089590BD89B999
S113015088E18AB98EE880BD62EA70E08EE990E0B9
S11301600E94B30008950F931F93CF93DF930097DA
S113017031F46115710519F480E090E03AC08B0107
S1130180EC016EE070E081E090E00E94F502FC0179
S1130190892B91F380E883830115110571F013878E
S11301A0028781E883838091EE019091EF01892B8E
S11301B021F4F093EF01E093EE012097C9F0D18789
S11301C0C0878381826083838091F0019091F101E3
S11301D0892B71F4F093F101E093F0018091F20125
S11301E09091F301892B21F4F093F301E093F20150
S11301F0CF01DF91CF911F910F910895A0E0B0E05E
S1130200E4E0F1E00C94F904AE014B5F5F4FFA01B6
S113021061917191AF018091F0019091F1010E947F
S11302201401E2E00C941505ABE0B0E0EAE1F1E082
S11302300C94E9046C017B018A01FC01178216828B
S1130240838181FFCCC1CE0101963C01F6019381EB
S1130250F70193FD859193FF81917F01882309F430
S1130260BAC1853239F493FD859193FF81917F0161
S1130270853229F4B60190E00E944F04E7CF912C17
S1130280212C312CFFE1F315D8F08B3279F038F4BE
S1130290803279F08332A1F4232D20611DC08D3288
S11302A061F0803369F4232D216016C0832D8260B0
S11302B0382EE32DE4603E2E2AC0F32DF8601DC0D5
S11302C037FC2DC020ED280F2A3040F08E32B9F4CF
S11302D036FC81C1232D2064322E19C036FE06C09F
S11302E08AE0989E200D1124922E11C0EAE02E9EE1
S11302F0200D1124222EF32DF0623F2E08C08C36DF
S113030021F4832D8068382E02C0883641F4F70129
S113031093FD859193FF81917F018111B3CF982F34
S11303209F7D9554933028F40C5F1F4F9FE399836E
S11303300DC0833631F0833771F0833509F059C02D
S113034021C0F801808189830E5F1F4F8824839424
S1130350912C530113C02801F2E04F0E511CF801F7
S1130360A080B18036FE03C0692D70E002C06FEF3B
S11303707FEFC5010E9444044C018201F32DFF77F5
S11303803F2E16C0280122E0420E511CF801A08025
S1130390B18036FE03C0692D70E002C06FEF7FEFBD
S11303A0C5010E9432044C01F32DF0683F2E8201F6
S11303B033FC1BC0822D90E088169906B0F4B60178
S11303C080E290E00E944F042A94F4CFF50137FCB8
S11303D0859137FE81915F01B60190E00E944F0440
S11303E021102A9421E0821A91088114910471F752
S11303F0E8C0843611F0893641F5F80137FE07C0AC
S113040060817181828193810C5F1F4F08C060817C
S11304107181072E000C880B990B0E5F1F4FF32D73
S1130420FF763F2E97FF09C0909580957095619552
S11304307F4F8F4F9F4FF0683F2E2AE030E0A3019B
S11304400E948B04882E861845C0853731F4232DED
S11304502F7EB22E2AE030E025C0932D997FB92E4D
S11304608F36C1F018F4883579F0B5C0803719F0AB
S1130470883721F0B0C0E92FE061BE2EB4FE0DC074
S1130480FB2DF460BF2E09C034FE0AC0292F26605C
S1130490B22E06C028E030E005C020E130E002C002
S11304A020E132E0F801B7FE07C0608171818281EA
S11304B093810C5F1F4F06C06081718180E090E0E2
S11304C00E5F1F4FA3010E948B04882E8618FB2DFC
S11304D0FF773F2E36FE0DC0232D2E7FA22E8914CA
S11304E058F434FE0BC032FC09C0832D8E7EA82E36
S11304F005C0B82CA32C03C0B82C01C0B92CA4FE91
S11305000FC0FE01E80DF11D8081803321F49A2D86
S1130510997EA92E09C0A2FE06C0B394B39404C068
S11305208A2D867809F0B394A3FC11C0A0FE06C0FE
S1130530B21488F4280C922C9B180EC0B21460F4E8
S1130540B60180E290E00E944F04B394F7CFB21456
S113055018F42B1802C0982C212CA4FE10C0B6014C
S113056080E390E00E944F04A2FE17C0A1FC03C0E8
S113057088E790E002C088E590E0B6010CC08A2DBF
S1130580867859F0A1FE02C08BE201C080E2A7FC8C
S11305908DE2B60190E00E944F04891438F4B6014C
S11305A080E390E00E944F049A94F7CF8A94F30179
S11305B0E80DF11D8081B60190E00E944F04811086
S11305C0F5CF222009F442CEB60180E290E00E94E9
S11305D04F042A94F6CFF6018681978102C08FEFEB
S11305E09FEF2B96E2E10C9405050F931F93CF9395
S11305F0DF93869F8001879F100D969F100D112415
S1130600C8010E941103EC01009729F0A80160E0E1
S113061070E00E943D04CE01DF91CF911F910F91B4
S113062008950F931F93CF93DF938230910510F4B5
S113063082E090E0E091F601F091F70120E030E0F3
S1130640A0E0B0E0309719F140815181028113811B
S113065048175907C8F08417950769F4109731F0C3
S113066012960C93129713961C9327C00093F601CD
S11306701093F70122C02115310519F042175307D1
S113068018F49A01BD01EF01DF01F801DBCF211558
S11306903105F9F0281B390B2430310580F48A81A7
S11306A09B816115710521F0FB019383828304C052
S11306B09093F7018093F601FE01329644C0FE0147
S11306C0E20FF31F819391932250310939832883D8
S11306D03AC02091F4013091F501232B41F420918B
S11306E00201309103013093F5012093F40120912C
S11306F00001309101012115310541F42DB73EB7B8
S11307004091040150910501241B350BE091F40143
S1130710F091F501E217F307A0F42E1B3F0B281705
S1130720390778F0AC014E5F5F4F2417350748F066
S11307304E0F5F1F5093F5014093F4018193919301
S113074002C0E0E0F0E0CF01DF91CF911F910F9163
S11307500895CF93DF93009709F481C0FC01329789
S113076013821282A091F601B091F701109781F4DF
S113077020813181820F931F2091F4013091F50182
S11307802817390751F5F093F501E093F40167C098
S1130790ED0120E030E0CE17DF0740F44A815B81B1
S11307A09E0141155105F1F0EA01F5CFD383C283CF
S11307B040815181840F951FC817D90759F4888146
S11307C09981840F951F0296918380838A819B81EE
S11307D0938382832115310529F4F093F701E09383
S11307E0F6013DC0E901FB83EA8349915991C40FA5
S11307F0D51FEC17FD0761F480819181840F951F4B
S11308000296E90199838883828193819B838A83F9
S1130810E0E0F0E012968D919C911397009719F007
S1130820FD01DC01F7CF8D919C9111979D012E5F05
S11308303F4F820F931F2091F4013091F501281747
S1130840390769F4309729F41092F7011092F601F0
S113085002C013821282B093F501A093F401DF91D8
S1130860CF910895FC010590615070400110D8F7B4
S1130870809590958E0F9F1F0895DC0101C06D93A4
S113088041505040E0F70895FC01615070400190E0
S11308900110D8F7809590958E0F9F1F08950F93A0
S11308A01F93CF93DF93FB01238121FD03C08FEFBF
S11308B09FEF2CC022FF16C04681578124813581C9
S11308C04217530744F4A081B1819D012F5F3F4F2C
S11308D0318320838C93268137812F5F3F4F378369
S11308E0268314C08B01EC01FB010084F185E02D0B
S11308F00995892BE1F6D80116968D919C9117974D
S1130900019617969C938E931697CE01DF91CF9103
S11309101F910F910895FA01AA27283051F120312F
S113092081F1E8946F936E7F6E5F7F4F8F4F9F4F7F
S1130930AF4FB1E03ED0B4E03CD0670F781F891FC1
S11309409A1FA11D680F791F8A1F911DA11D6A0F8F
S1130950711D811D911DA11D20D009F468943F9142
S11309602AE0269F11243019305D3193DEF6CF0141
S11309700895462F4770405D4193B3E00FD0C9F707
S1130980F6CF462F4F70405D4A3318F0495D31FD74
S11309904052419302D0A9F7EACFB4E0A6959795C7
S11309A0879577956795BA95C9F70097610571059D
S11309B008959B01AC010A2E0694579547953795E7
S11309C02795BA95C9F7620F731F841F951FA01D41
S11309D008952F923F924F925F926F927F928F92DF
S11309E09F92AF92BF92CF92DF92EF92FF920F93BA
S11309F01F93CF93DF93CDB7DEB7CA1BDB0B0FB6C4
S1130A00F894DEBF0FBECDBF09942A883988488880
S1130A105F846E847D848C849B84AA84B984C88416
S1130A20DF80EE80FD800C811B81AA81B981CE0F0D
S1130A30D11D0FB6F894DEBF0FBECDBFED010895F2
S1070A40F894FFCF54
S1130A440000F80120002564005374617274696E17
S1130A5467205352414D20746573742E2E2E005713
S1130A6472697465207068617365206572726F724F
S1130A743A206578745F72616D5B2534645D203D52
S1130A842025303258202873686F756C64206265A1
S1130A942025303258290A005265747269657661DA
S1130AA46C207068617365206572726F723A206598
S1130AB478745F72616D5B2534645D203D2025305C
S1130AC43258202873686F756C6420626520253061
S1130AD43258290A005352414D20746573742063BB
S1130AE46F6D706C657465642077697468200A2579
S1130AF43464206572726F727320696E2077726930
S1130B04746520706861736520616E64200A2534FD
S1130B1464206572726F727320696E2072657472D8
S1110B24696576616C2070686173650A0A0069
S9030000FC
