S011000031354279676765726E2E73726563DF
S11300000C9438000C9455000C9455000C94550035
S11300100C9455000C9455000C9455000C94550008
S11300200C9455000C9455000C9455000C945500F8
S11300300C9455000C9466000C9455000C945500D7
S11300400C9455000C9455000C9455000C945500D8
S11300500C9455000C9455000C9455000C945500C8
S11300600C9455000C9455000C9455000C945500B8
S113007011241FBECFEFD4E0DEBFCDBF11E0A0E05E
S1130080B1E0E4E9F0E102C005900D92A834B107B3
S1130090D9F721E0A8E4B1E001C01D92A435B2076C
S11300A0E1F70E94A9010C9448080C9400008D9A71
S11300B082EC8FBD89E18EBD8AE090E095BD84BD60
S11300C085E090E09BBD8ABD789408951F920F92BD
S11300D00FB60F9211240F900FBE0F901F9018951A
S11300E08068E0E0F4E180838FEF9FE50197F1F70A
S11300F000C0000080810895EF92FF920F931F9338
S1130100CF93DF938C0180E00E947000C82FD0E071
S1130110CF57D109E12CF12CF701D783C68381E0B5
S11301200E94700090E08F579109F70191878087B2
S11301309F938F93DF93CF9386E091E09F938F9368
S11301400E9426048BE0F701D80101900D928A9554
S1130150E1F70F900F900F900F900F900F90C80140
S1130160DF91CF911F910F91FF90EF900895CF925F
S1130170DF92EF92FF920F931F93CF93DF93C62FDB
S1130180D0E0682F70E06C1B7D0B6F5771091AF477
S11301900FEF1FEF02C001E010E0072E000C880BE8
S11301A0990B0E94E2026B017C010C9FC0010D9F20
S11301B0900D1C9F900D11246FE770E0681B790B64
S11301C0072E000C880B990B0E94E2029B01AC01E4
S11301D0C701B6010E94380220E030E048EC52E446
S11301E00E946E030E94AA02CB016536710514F0C9
S11301F084E690E0DF91CF911F910F91FF90EF90F3
S1130200DF90CF9008951F93CF93DF93EC011E816D
S113021080E00E947000612F0E94B7009B838A8354
S1130220188581E00E947000612F0E94B7009D83B1
S11302308C83DF91CF911F910895FC01228133813A
S113024023333105ACF0A901332324F44427552783
S1130250421B530B8481958199231CF491958195BC
S11302609109481759070CF457C081E08287089513
S11302702E3C4FEF3407ACF484819581A9013323DC
S113028024F444275527421B530B9C01992324F43F
S113029022273327281B390B42175307B4F1128640
S11302A008958481958183339105A4F0A9013323B2
S11302B024F444275527421B530B9C01992324F40F
S11302C022273327281B390B42175307DCF482E01B
S11302D0828708958E3C4FEF9407A4F4A901332339
S11302E024F444275527421B530B9C01992324F4DF
S11302F022273327281B390B421753071CF483E0AA
S11303008287089584E08287089583339105FCF6FB
S113031008C084819581F9CF2E3C8FEF3807CCF348
S1130320C0CF8E3C9F4F74F7EACFCF9382E00E94F8
S11303307000C82F83E00E947000982F8C2FCF91FB
S1130340089585B7806885BF80B7806280BF87B312
S11303500895CF93DF93CDB7DEB72B970FB6F894FC
S1130360DEBF0FBECDBF8FE190E00E942B02319A19
S1130370399A0E94A1010E9457000E94D801CE011F
S113038001960E947C000E949501CE0101960E9474
S11303900301CE0101960E941D0164E082E00E94E7
S11303A01A028FEF9FE50197F1F700C00000EBCF31
S11303B0E0E0F0E18EEA808381EA80838AED808345
S11303C082E1808388EC808388EA80838FE3808362
S11303D085ED808380E8808381E8808380E5808365
S11303E089ED808381E2808380E2808382E0808360
S11303F08BED808380E380838DEA8083108284EA9E
S1130400808386EA80838FEA8083089580934801FD
S1130410E0E0F0E192E2908380838F5F808308952F
S113042080934901E0E0F0E191E2908380838FE7DB
S113043080830895CF93C62F0E9406028C2F0E94BA
S11304401002CF9108955D9BFECF8CB908955F9BF8
S1130450FECF8CB1089590BD89B988E18AB98EE840
S113046080BD67E272E083E292E00E94DB030895BC
S11304700E944C020C9434030E942D0358F00E94F5
S1130480260340F029F45F3F29F00C941D03511119
S11304900C9468030C9423030E94450368F3992386
S11304A0B1F3552391F3951B550BBB27AA2762176C
S11304B07307840738F09F5F5F4F220F331F441F79
S11304C0AA1FA9F335D00E2E3AF0E0E832D09150AD
S11304D05040E695001CCAF72BD0FE2F29D0660F9A
S11304E0771F881FBB1F261737074807AB07B0E8DD
S11304F009F0BB0B802DBF01FF2793585F4F3AF0E3
S11305009E3F510578F00C941D030C9468035F3FE3
S1130510E4F3983ED4F3869577956795B795F79568
S11305209F5FC9F7880F911D9695879597F9089550
S1130530E1E0660F771F881FBB1F621773078407EC
S1130540BA0720F0621B730B840BBA0BEE1F88F7FB
S1130550E09508950E94B1026894B1110C94680367
S113056008950E944D0388F09F5798F0B92F99275A
S1130570B751B0F0E1F0660F771F881F991F1AF08A
S1130580BA95C9F714C0B13091F00E946703B1E085
S113059008950C946703672F782F8827B85F39F084
S11305A0B93FCCF3869577956795B395D9F73EF423
S11305B090958095709561957F4F8F4F9F4F0895CB
S11305C0E89409C097FB3EF49095809570956195E9
S11305D07F4F8F4F9F4F9923A9F0F92F96E9BB279F
S11305E09395F695879577956795B795F111F8CF1B
S11305F0FAF4BB0F11F460FF1BC06F5F7F4F8F4F86
S11306009F4F16C0882311F096E911C0772321F07B
S11306109EE8872F762F05C0662371F096E8862F13
S113062070E060E02AF09A95660F771F881FDAF76A
S1130630880F9695879597F9089597F99F6780E8AD
S113064070E060E008959FEF80EC089500240A9420
S11306501616170618060906089500240A94121699
S11306601306140605060895092E0394000C11F4CC
S1130670882352F0BB0F40F4BF2B11F460FF04C079
S11306806F5F7F4F8F4F9F4F089557FD9058440FD2
S1130690551F59F05F3F71F04795880F97FB991FDD
S11306A061F09F3F79F0879508951216130614069A
S11306B0551FF2CF4695F1DF08C016161706180627
S11306C0991FF1CF86957105610508940895E89402
S11306D0BB2766277727CB0197F908950E948103EA
S11306E00C9434030E94260338F00E942D0320F05A
S11306F0952311F00C941D030C94230311240C94E2
S113070068030E94450370F3959FC1F3950F50E071
S1130710551F629FF001729FBB27F00DB11D639FAF
S1130720AA27F00DB11DAA1F649F6627B00DA11D55
S1130730661F829F2227B00DA11D621F739FB00DFB
S1130740A11D621F839FA00D611D221F749F33276B
S1130750A00D611D231F849F600D211D822F762F04
S11307606A2F11249F5750409AF0F1F088234AF0E1
S1130770EE0FFF1FBB1F661F771F881F915050404D
S1130780A9F79E3F510580F00C941D030C94680357
S11307905F3FE4F3983ED4F3869577956795B795D4
S11307A0F795E7959F5FC1F7FE2B880F911D9695EE
S11307B0879597F908950F931F93CF93DF9300972D
S11307C031F46115710519F480E090E03AC08B01B1
S11307D0EC016EE070E081E090E00E941D06FC01F7
S11307E0892B91F380E883830115110571F0138738
S11307F0028781E8838380914A0190914B01892B80
S113080021F4F0934B01E0934A012097C9F0D1877A
S1130810C08783818260838380914C0190914D01D4
S1130820892B71F4F0934D01E0934C0180914E01BA
S113083090914F01892B21F4F0934F01E0934E01E5
S1130840CF01DF91CF911F910F910895A0E0B0E007
S1130850ECE2F4E00C942108AE014B5F5F4FFA0127
S113086061917191AF0180914C0190914D010E9471
S11308703C04E2E00C943D08ABE0B0E0E2E4F4E0D8
S11308800C9411086C017B018A01FC011782168209
S1130890838181FFCCC1CE0101963C01F601938195
S11308A0F70193FD859193FF81917F01882309F4DA
S11308B0BAC1853239F493FD859193FF81917F010B
S11308C0853229F4B60190E00E947707E7CF912C96
S11308D0212C312CFFE1F315D8F08B3279F038F468
S11308E0803279F08332A1F4232D20611DC08D3232
S11308F061F0803369F4232D216016C0832D82605A
S1130900382EE32DE4603E2E2AC0F32DF8601DC07E
S113091037FC2DC020ED280F2A3040F08E32B9F478
S113092036FC81C1232D2064322E19C036FE06C048
S11309308AE0989E200D1124922E11C0EAE02E9E8A
S1130940200D1124222EF32DF0623F2E08C08C3688
S113095021F4832D8068382E02C0883641F4F701D3
S113096093FD859193FF81917F018111B3CF982FDE
S11309709F7D9554933028F40C5F1F4F9FE3998318
S11309800DC0833631F0833771F0833509F059C0D7
S113099021C0F801808189830E5F1F4F88248394CE
S11309A0912C530113C02801F2E04F0E511CF801A1
S11309B0A080B18036FE03C0692D70E002C06FEFE5
S11309C07FEFC5010E946C074C018201F32DFF7774
S11309D03F2E16C0280122E0420E511CF801A080CF
S11309E0B18036FE03C0692D70E002C06FEF7FEF67
S11309F0C5010E945A074C01F32DF0683F2E820175
S1130A0033FC1BC0822D90E088169906B0F4B60121
S1130A1080E290E00E9477072A94F4CFF50137FC36
S1130A20859137FE81915F01B60190E00E947707BE
S1130A3021102A9421E0821A91088114910471F7FB
S1130A40E8C0843611F0893641F5F80137FE07C055
S1130A5060817181828193810C5F1F4F08C0608126
S1130A607181072E000C880B990B0E5F1F4FF32D1D
S1130A70FF763F2E97FF09C09095809570956195FC
S1130A807F4F8F4F9F4FF0683F2E2AE030E0A30145
S1130A900E94B307882E861845C0853731F4232D6C
S1130AA02F7EB22E2AE030E025C0932D997FB92EF7
S1130AB08F36C1F018F4883579F0B5C0803719F055
S1130AC0883721F0B0C0E92FE061BE2EB4FE0DC01E
S1130AD0FB2DF460BF2E09C034FE0AC0292F266006
S1130AE0B22E06C028E030E005C020E130E002C0AC
S1130AF020E132E0F801B7FE07C060817181828194
S1130B0093810C5F1F4F06C06081718180E090E08B
S1130B100E5F1F4FA3010E94B307882E8618FB2D7A
S1130B20FF773F2E36FE0DC0232D2E7FA22E891473
S1130B3058F434FE0BC032FC09C0832D8E7EA82EDF
S1130B4005C0B82CA32C03C0B82C01C0B92CA4FE3A
S1130B500FC0FE01E80DF11D8081803321F49A2D30
S1130B60997EA92E09C0A2FE06C0B394B39404C012
S1130B708A2D867809F0B394A3FC11C0A0FE06C0A8
S1130B80B21488F4280C922C9B180EC0B21460F492
S1130B90B60180E290E00E947707B394F7CFB214D5
S1130BA018F42B1802C0982C212CA4FE10C0B601F6
S1130BB080E390E00E947707A2FE17C0A1FC03C067
S1130BC088E790E002C088E590E0B6010CC08A2D69
S1130BD0867859F0A1FE02C08BE201C080E2A7FC36
S1130BE08DE2B60190E00E947707891438F4B601CB
S1130BF080E390E00E9477079A94F7CF8A94F301F8
S1130C00E80DF11D8081B60190E00E947707811004
S1130C10F5CF222009F442CEB60180E290E00E9492
S1130C2077072A94F6CFF6018681978102C08FEF69
S1130C309FEF2B96E2E10C942D080F931F93CF9313
S1130C40DF93869F8001879F100D969F100D1124BE
S1130C50C8010E943906EC01009729F0A80160E060
S1130C6070E00E946507CE01DF91CF911F910F9133
S1130C7008950F931F93CF93DF938230910510F45F
S1130C8082E090E0E0915201F091530120E030E0E5
S1130C90A0E0B0E0309719F14081518102811381C5
S1130CA048175907C8F08417950769F4109731F06D
S1130CB012960C93129713961C9327C0009352011B
S1130CC01093530122C02115310519F0421753071F
S1130CD018F49A01BD01EF01DF01F801DBCF211502
S1130CE03105F9F0281B390B2430310580F48A8151
S1130CF09B816115710521F0FB019383828304C0FC
S1130D009093530180935201FE01329644C0FE0138
S1130D10E20FF31F81939193225031093983288381
S1130D203AC02091500130915101232B41F420917C
S1130D30020130910301309351012093500120911D
S1130D400001309101012115310541F42DB73EB761
S1130D504091040150910501241B350BE091500191
S1130D60F0915101E217F307A0F42E1B3F0B281753
S1130D70390778F0AC014E5F5F4F2417350748F010
S1130D804E0F5F1F509351014093500181939193F3
S1130D9002C0E0E0F0E0CF01DF91CF911F910F910D
S1130DA00895CF93DF93009709F481C0FC01329733
S1130DB013821282A0915201B0915301109781F4D1
S1130DC020813181820F931F209150013091510174
S1130DD02817390751F5F0935101E093500167C08A
S1130DE0ED0120E030E0CE17DF0740F44A815B815B
S1130DF09E0141155105F1F0EA01F5CFD383C28379
S1130E0040815181840F951FC817D90759F48881EF
S1130E109981840F951F0296918380838A819B8197
S1130E20938382832115310529F4F0935301E093D0
S1130E3052013DC0E901FB83EA8349915991C40FF2
S1130E40D51FEC17FD0761F480819181840F951FF4
S1130E500296E90199838883828193819B838A83A3
S1130E60E0E0F0E012968D919C911397009719F0B1
S1130E70FD01DC01F7CF8D919C9111979D012E5FAF
S1130E803F4F820F931F2091500130915101281739
S1130E90390769F4309729F41092530110925201E2
S1130EA002C013821282B0935101A0935001DF91CA
S1130EB0CF910895FC010590615070400110D8F75E
S1130EC0809590958E0F9F1F0895DC0101C06D934E
S1130ED041505040E0F70895FC016150704001908A
S1130EE00110D8F7809590958E0F9F1F08950F934A
S1130EF01F93CF93DF93FB01238121FD03C08FEF69
S1130F009FEF2CC022FF16C0468157812481358172
S1130F104217530744F4A081B1819D012F5F3F4FD5
S1130F20318320838C93268137812F5F3F4F378312
S1130F30268314C08B01EC01FB010084F185E02DB4
S1130F400995892BE1F6D80116968D919C911797F6
S1130F50019617969C938E931697CE01DF91CF91AD
S1130F601F910F910895FA01AA27283051F12031D9
S1130F7081F1E8946F936E7F6E5F7F4F8F4F9F4F29
S1130F80AF4FB1E03ED0B4E03CD0670F781F891F6B
S1130F909A1FA11D680F791F8A1F911DA11D6A0F39
S1130FA0711D811D911DA11D20D009F468943F91EC
S1130FB02AE0269F11243019305D3193DEF6CF01EB
S1130FC00895462F4770405D4193B3E00FD0C9F7B1
S1130FD0F6CF462F4F70405D4A3318F0495D31FD1E
S1130FE04052419302D0A9F7EACFB4E0A695979571
S1130FF0879577956795BA95C9F700976105710547
S113100008959B01AC010A2E069457954795379590
S11310102795BA95C9F7620F731F841F951FA01DEA
S113102008952F923F924F925F926F927F928F9288
S11310309F92AF92BF92CF92DF92EF92FF920F9363
S11310401F93CF93DF93CDB7DEB7CA1BDB0B0FB66D
S1131050F894DEBF0FBECDBF09942A88398848882A
S11310605F846E847D848C849B84AA84B984C884C0
S1131070DF80EE80FD800C811B81AA81B981CE0FB7
S1131080D11D0FB6F894DEBF0FBECDBFED0108959C
S1071090F894FFCFFE
S11310940000540120002825642C202564290052D2
S11310A449474854004C45465400555000444F5752
S11310B44E004E45555452414C00583A202564097B
S11310C4593A2025640920446972656374696F6E12
S10B10D43A2025640A0D000016
S9030000FC
